{
  "contractName": "GithubSigner",
  "abi": [
    {
      "inputs": [
        {
          "internalType": "uint256",
          "name": "_fee",
          "type": "uint256"
        }
      ],
      "stateMutability": "nonpayable",
      "type": "constructor"
    },
    {
      "anonymous": false,
      "inputs": [
        {
          "indexed": false,
          "internalType": "bytes32",
          "name": "message",
          "type": "bytes32"
        },
        {
          "indexed": false,
          "internalType": "bytes",
          "name": "signature",
          "type": "bytes"
        },
        {
          "indexed": false,
          "internalType": "string",
          "name": "query",
          "type": "string"
        },
        {
          "indexed": false,
          "internalType": "string",
          "name": "nodeId",
          "type": "string"
        },
        {
          "indexed": false,
          "internalType": "bool",
          "name": "value",
          "type": "bool"
        }
      ],
      "name": "VerifyEvent",
      "type": "event"
    },
    {
      "inputs": [],
      "name": "fee",
      "outputs": [
        {
          "internalType": "uint256",
          "name": "",
          "type": "uint256"
        }
      ],
      "stateMutability": "view",
      "type": "function"
    },
    {
      "inputs": [],
      "name": "owner",
      "outputs": [
        {
          "internalType": "address",
          "name": "",
          "type": "address"
        }
      ],
      "stateMutability": "view",
      "type": "function"
    },
    {
      "inputs": [
        {
          "internalType": "uint256",
          "name": "_fee",
          "type": "uint256"
        }
      ],
      "name": "setFee",
      "outputs": [],
      "stateMutability": "nonpayable",
      "type": "function"
    },
    {
      "inputs": [
        {
          "internalType": "uint256",
          "name": "_requestId",
          "type": "uint256"
        }
      ],
      "name": "getRequest",
      "outputs": [
        {
          "internalType": "string",
          "name": "",
          "type": "string"
        },
        {
          "internalType": "string",
          "name": "",
          "type": "string"
        }
      ],
      "stateMutability": "view",
      "type": "function"
    },
    {
      "inputs": [
        {
          "internalType": "string",
          "name": "_query",
          "type": "string"
        },
        {
          "internalType": "string",
          "name": "_nodeId",
          "type": "string"
        }
      ],
      "name": "requestSignature",
      "outputs": [
        {
          "internalType": "uint256",
          "name": "",
          "type": "uint256"
        }
      ],
      "stateMutability": "payable",
      "type": "function"
    },
    {
      "inputs": [
        {
          "internalType": "uint256",
          "name": "_requestId",
          "type": "uint256"
        },
        {
          "internalType": "bytes",
          "name": "_signature",
          "type": "bytes"
        },
        {
          "internalType": "bool",
          "name": "_value",
          "type": "bool"
        }
      ],
      "name": "verifySignatureBool",
      "outputs": [
        {
          "internalType": "bool",
          "name": "",
          "type": "bool"
        }
      ],
      "stateMutability": "nonpayable",
      "type": "function"
    }
  ],
  "bytecode": "0x608060405234801561001057600080fd5b50604051610b01380380610b0183398101604081905261002f9161004f565b600080546001600160a01b03191633178155600191909155600355610068565b60006020828403121561006157600080fd5b5051919050565b610a8a806100776000396000f3fe6080604052600436106100555760003560e01c806369fe0e2d1461005a57806374066a231461007c5780638da5cb5b146100b1578063a39083f2146100e9578063c58343ef1461010a578063ddca3f4314610138575b600080fd5b34801561006657600080fd5b5061007a61007536600461077c565b61014e565b005b34801561008857600080fd5b5061009c610097366004610795565b6101a0565b60405190151581526020015b60405180910390f35b3480156100bd57600080fd5b506000546100d1906001600160a01b031681565b6040516001600160a01b0390911681526020016100a8565b6100fc6100f7366004610710565b610308565b6040519081526020016100a8565b34801561011657600080fd5b5061012a61012536600461077c565b6104b5565b6040516100a89291906109c2565b34801561014457600080fd5b506100fc60015481565b6000546001600160a01b0316331461019b5760405162461bcd60e51b815260206004820152600b60248201526a27b7363c9037bbb732b91760a91b60448201526064015b60405180910390fd5b600155565b6000848152600260208190526040822001546001600160a01b0316331461021e5760405162461bcd60e51b815260206004820152602c60248201527f526571756573742063616e206f6e6c792062652076657269666965642062792060448201526b3bb4379039b2b73a1034ba1760a11b6064820152608401610192565b600085815260026020908152604080832090516102a7926102479291600183019188910161092c565b60408051601f1981840301815282825280516020918201207f19457468657265756d205369676e6564204d6573736167653a0a33320000000084830152603c8085019190915282518085039091018152605c909301909152815191012090565b6000878152600260205260409081902090519192507f966c003a86cc5285cba48a70d532c961229dbef3b21b8efa6cbd4adc6b850bc5916102f49184918991899160018201908a90610954565b60405180910390a150600195945050505050565b600060015434101561035c5760405162461bcd60e51b815260206004820152601c60248201527f496e73756666696369616e74207369676e6572207061796d656e742e000000006044820152606401610192565b600080546040516001600160a01b03909116913480156108fc02929091818181858888f19350505050158015610396573d6000803e3d6000fd5b50600380549060006103a783610a2b565b90915550506040805160a06020601f88018190040282018101909252608081018681526000928291908990899081908501838280828437600092019190915250505090825250604080516020601f88018190048102820181019092528681529181019190879087908190840183828082843760009201829052509385525050336020808501919091524260409485015260035483526002815292909120835180519495508594919361045e9350849291019061062e565b506020828101518051610477926001850192019061062e565b5060408201516002820180546001600160a01b0319166001600160a01b03909216919091179055606090910151600391820155549695505050505050565b6060806000600260008581526020019081526020016000206040518060800160405290816000820180546104e8906109f0565b80601f0160208091040260200160405190810160405280929190818152602001828054610514906109f0565b80156105615780601f1061053657610100808354040283529160200191610561565b820191906000526020600020905b81548152906001019060200180831161054457829003601f168201915b5050505050815260200160018201805461057a906109f0565b80601f01602080910402602001604051908101604052809291908181526020018280546105a6906109f0565b80156105f35780601f106105c8576101008083540402835291602001916105f3565b820191906000526020600020905b8154815290600101906020018083116105d657829003601f168201915b505050918352505060028201546001600160a01b03166020808301919091526003909201546040909101528151910151909590945092505050565b82805461063a906109f0565b90600052602060002090601f01602090048101928261065c57600085556106a2565b82601f1061067557805160ff19168380011785556106a2565b828001600101855582156106a2579182015b828111156106a2578251825591602001919060010190610687565b506106ae9291506106b2565b5090565b5b808211156106ae57600081556001016106b3565b60008083601f8401126106d957600080fd5b50813567ffffffffffffffff8111156106f157600080fd5b60208301915083602082850101111561070957600080fd5b9250929050565b6000806000806040858703121561072657600080fd5b843567ffffffffffffffff8082111561073e57600080fd5b61074a888389016106c7565b9096509450602087013591508082111561076357600080fd5b50610770878288016106c7565b95989497509550505050565b60006020828403121561078e57600080fd5b5035919050565b600080600080606085870312156107ab57600080fd5b84359350602085013567ffffffffffffffff8111156107c957600080fd5b6107d5878288016106c7565b909450925050604085013580151581146107ee57600080fd5b939692955090935050565b6000815180845260005b8181101561081f57602081850181015186830182015201610803565b81811115610831576000602083870101525b50601f01601f19169290920160200192915050565b60008154610853816109f0565b8085526020600183811680156108705760018114610884576108b2565b60ff198516888401526040880195506108b2565b866000528260002060005b858110156108aa5781548a820186015290830190840161088f565b890184019650505b505050505092915050565b600081546108ca816109f0565b600182811680156108e257600181146108f357610922565b60ff19841687528287019450610922565b8560005260208060002060005b858110156109195781548a820152908401908201610900565b50505082870194505b5050505092915050565b600061094161093b83876108bd565b856108bd565b92151560f81b8352505060010192915050565b86815260a060208201528460a0820152848660c0830137600060c086830101526000601f19601f870116820160c083820301604084015261099860c0820187610846565b905082810360608401526109ac8186610846565b9150508215156080830152979650505050505050565b6040815260006109d560408301856107f9565b82810360208401526109e781856107f9565b95945050505050565b600181811c90821680610a0457607f821691505b60208210811415610a2557634e487b7160e01b600052602260045260246000fd5b50919050565b6000600019821415610a4d57634e487b7160e01b600052601160045260246000fd5b506001019056fea264697066735822122034d65221f8541ab37270a0eafc3730288626de31d672133499f2db99b4927f3b64736f6c63430008070033",
  "immutableReferences": {},
  "source": "// SPDX-License-Identifier: GPL-3.0\npragma solidity 0.8.7;\n\ncontract GithubSigner {\n  address public owner;\n  uint256 public fee;\n  \n  struct Request {\n    string query;\n    string nodeId;\n    address consumer;\n    uint256 timestamp;\n  }\n  mapping(uint256 => Request) requests;\n  uint256 lastRequestId;\n\n  constructor(uint256 _fee) {\n    owner = msg.sender;\n    fee = _fee;\n    lastRequestId = 0;\n  }\n\n  function setFee(uint256 _fee) public {\n    require(msg.sender == owner, 'Only owner.');\n    fee = _fee;\n  }\n\n  function getRequest(uint256 _requestId) public view returns(string memory, string memory) {\n    Request memory request = requests[_requestId];\n    return (request.query, request.nodeId);\n  }\n\n  function requestSignature(string calldata _query, string calldata _nodeId) public payable returns(uint256) {\n    require(msg.value >= fee, 'Insufficiant signer payment.');\n    payable(owner).transfer(msg.value);\n\n    lastRequestId++;\n    Request memory request = Request(\n      _query,\n      _nodeId,\n      msg.sender,\n      block.timestamp\n    );\n    requests[lastRequestId] = request;\n    \n    return lastRequestId;\n  }\n\n  event VerifyEvent(bytes32 message, bytes signature, string query, string nodeId, bool value);\n  function verifySignatureBool(uint256 _requestId, bytes calldata _signature, bool _value) public returns(bool) {\n    require(msg.sender == requests[_requestId].consumer, 'Request can only be verified by who sent it.');\n\n    bytes32 message = prefixed(keccak256(abi.encodePacked(requests[_requestId].query, requests[_requestId].nodeId, _value)));\n    emit VerifyEvent(message, _signature, requests[_requestId].query, requests[_requestId].nodeId, _value);\n\n    // return recoverSigner(message, _signature) == owner;\n    return true;\n  }\n\n  // signature methods.\n  function splitSignature(bytes memory sig)\n      internal\n      pure\n      returns (uint8 v, bytes32 r, bytes32 s)\n  {\n      require(sig.length == 65);\n\n      assembly {\n          // first 32 bytes, after the length prefix.\n          r := mload(add(sig, 32))\n          // second 32 bytes.\n          s := mload(add(sig, 64))\n          // final byte (first byte of the next 32 bytes).\n          v := byte(0, mload(add(sig, 96)))\n      }\n\n      return (v, r, s);\n  }\n\n  function recoverSigner(bytes32 message, bytes memory sig)\n      internal\n      pure\n      returns (address)\n  {\n      (uint8 v, bytes32 r, bytes32 s) = splitSignature(sig);\n\n      return ecrecover(message, v, r, s);\n  }\n\n  // builds a prefixed hash to mimic the behavior of eth_sign.\n  function prefixed(bytes32 hash) internal pure returns (bytes32) {\n      return keccak256(abi.encodePacked(\"\\x19Ethereum Signed Message:\\n32\", hash));\n  }\n}",
  "sourcePath": "/home/mkt/Projects/cryptoactions/contracts/src/GithubSigner.sol",
  "compiler": {
    "name": "solc",
    "version": "0.8.7+commit.e28d00a7.Emscripten.clang"
  },
  "schemaVersion": "3.4.3",
  "updatedAt": "2021-09-09T21:59:06.077Z",
  "devdoc": {
    "kind": "dev",
    "methods": {},
    "version": 1
  },
  "userdoc": {
    "kind": "user",
    "methods": {},
    "version": 1
  }
}