{
  "contractName": "GithubSigner",
  "abi": [
    {
      "inputs": [
        {
          "internalType": "uint256",
          "name": "_fee",
          "type": "uint256"
        }
      ],
      "stateMutability": "nonpayable",
      "type": "constructor"
    },
    {
      "anonymous": false,
      "inputs": [
        {
          "indexed": false,
          "internalType": "bytes32",
          "name": "message",
          "type": "bytes32"
        },
        {
          "indexed": false,
          "internalType": "bytes",
          "name": "signature",
          "type": "bytes"
        },
        {
          "indexed": false,
          "internalType": "string",
          "name": "query",
          "type": "string"
        },
        {
          "indexed": false,
          "internalType": "string",
          "name": "nodeId",
          "type": "string"
        },
        {
          "indexed": false,
          "internalType": "bool",
          "name": "value",
          "type": "bool"
        },
        {
          "indexed": false,
          "internalType": "address",
          "name": "recovered",
          "type": "address"
        }
      ],
      "name": "VerifyEvent",
      "type": "event"
    },
    {
      "inputs": [],
      "name": "fee",
      "outputs": [
        {
          "internalType": "uint256",
          "name": "",
          "type": "uint256"
        }
      ],
      "stateMutability": "view",
      "type": "function",
      "constant": true
    },
    {
      "inputs": [],
      "name": "owner",
      "outputs": [
        {
          "internalType": "address",
          "name": "",
          "type": "address"
        }
      ],
      "stateMutability": "view",
      "type": "function",
      "constant": true
    },
    {
      "inputs": [
        {
          "internalType": "uint256",
          "name": "_fee",
          "type": "uint256"
        }
      ],
      "name": "setFee",
      "outputs": [],
      "stateMutability": "nonpayable",
      "type": "function"
    },
    {
      "inputs": [
        {
          "internalType": "uint256",
          "name": "_requestId",
          "type": "uint256"
        }
      ],
      "name": "getRequest",
      "outputs": [
        {
          "internalType": "string",
          "name": "",
          "type": "string"
        },
        {
          "internalType": "string",
          "name": "",
          "type": "string"
        }
      ],
      "stateMutability": "view",
      "type": "function",
      "constant": true
    },
    {
      "inputs": [
        {
          "internalType": "string",
          "name": "_query",
          "type": "string"
        },
        {
          "internalType": "string",
          "name": "_nodeId",
          "type": "string"
        }
      ],
      "name": "requestSignature",
      "outputs": [
        {
          "internalType": "uint256",
          "name": "",
          "type": "uint256"
        }
      ],
      "stateMutability": "payable",
      "type": "function",
      "payable": true
    },
    {
      "inputs": [
        {
          "internalType": "uint256",
          "name": "_requestId",
          "type": "uint256"
        },
        {
          "internalType": "bytes",
          "name": "_signature",
          "type": "bytes"
        },
        {
          "internalType": "bool",
          "name": "_value",
          "type": "bool"
        }
      ],
      "name": "verifySignatureBool",
      "outputs": [
        {
          "internalType": "bool",
          "name": "",
          "type": "bool"
        }
      ],
      "stateMutability": "nonpayable",
      "type": "function"
    }
  ],
  "bytecode": "0x608060405234801561001057600080fd5b50604051610c05380380610c0583398101604081905261002f9161004f565b600080546001600160a01b03191633178155600191909155600355610068565b60006020828403121561006157600080fd5b5051919050565b610b8e806100776000396000f3fe6080604052600436106100555760003560e01c806369fe0e2d1461005a57806374066a231461007c5780638da5cb5b146100b1578063a39083f2146100e9578063c58343ef1461010a578063ddca3f4314610138575b600080fd5b34801561006657600080fd5b5061007a610075366004610871565b61014e565b005b34801561008857600080fd5b5061009c61009736600461088a565b6101a0565b60405190151581526020015b60405180910390f35b3480156100bd57600080fd5b506000546100d1906001600160a01b031681565b6040516001600160a01b0390911681526020016100a8565b6100fc6100f7366004610805565b61034f565b6040519081526020016100a8565b34801561011657600080fd5b5061012a610125366004610871565b6104fc565b6040516100a8929190610ac6565b34801561014457600080fd5b506100fc60015481565b6000546001600160a01b0316331461019b5760405162461bcd60e51b815260206004820152600b60248201526a27b7363c9037bbb732b91760a91b60448201526064015b60405180910390fd5b600155565b6000848152600260208190526040822001546001600160a01b0316331461021e5760405162461bcd60e51b815260206004820152602c60248201527f526571756573742063616e206f6e6c792062652076657269666965642062792060448201526b3bb4379039b2b73a1034ba1760a11b6064820152608401610192565b600085815260026020908152604080832090516102a79261024792916001830191889101610a21565b60408051601f1981840301815282825280516020918201207f19457468657265756d205369676e6564204d6573736167653a0a33320000000084830152603c8085019190915282518085039091018152605c909301909152815191012090565b905060006102eb8287878080601f01602080910402602001604051908101604052809392919081815260200183838082843760009201919091525061067592505050565b6000888152600260205260409081902090519192507f36ad4445c94b119823da3cfb801ef4221b6423a9f6d7551296470fc5c9d4ccdc9161033a9185918a918a9160018201908b908990610a49565b60405180910390a15060019695505050505050565b60006001543410156103a35760405162461bcd60e51b815260206004820152601c60248201527f496e73756666696369616e74207369676e6572207061796d656e742e000000006044820152606401610192565b600080546040516001600160a01b03909116913480156108fc02929091818181858888f193505050501580156103dd573d6000803e3d6000fd5b50600380549060006103ee83610b2f565b90915550506040805160a06020601f88018190040282018101909252608081018681526000928291908990899081908501838280828437600092019190915250505090825250604080516020601f8801819004810282018101909252868152918101919087908790819084018382808284376000920182905250938552505033602080850191909152426040948501526003548352600281529290912083518051949550859491936104a593508492910190610723565b5060208281015180516104be9260018501920190610723565b5060408201516002820180546001600160a01b0319166001600160a01b03909216919091179055606090910151600391820155549695505050505050565b60608060006002600085815260200190815260200160002060405180608001604052908160008201805461052f90610af4565b80601f016020809104026020016040519081016040528092919081815260200182805461055b90610af4565b80156105a85780601f1061057d576101008083540402835291602001916105a8565b820191906000526020600020905b81548152906001019060200180831161058b57829003601f168201915b505050505081526020016001820180546105c190610af4565b80601f01602080910402602001604051908101604052809291908181526020018280546105ed90610af4565b801561063a5780601f1061060f5761010080835404028352916020019161063a565b820191906000526020600020905b81548152906001019060200180831161061d57829003601f168201915b505050918352505060028201546001600160a01b03166020808301919091526003909201546040909101528151910151909590945092505050565b600080600080610684856106f4565b6040805160008152602081018083528b905260ff8516918101919091526060810183905260808101829052929550909350915060019060a0016020604051602081039080840390855afa1580156106df573d6000803e3d6000fd5b5050604051601f190151979650505050505050565b6000806000835160411461070757600080fd5b5050506020810151604082015160609092015160001a92909190565b82805461072f90610af4565b90600052602060002090601f0160209004810192826107515760008555610797565b82601f1061076a57805160ff1916838001178555610797565b82800160010185558215610797579182015b8281111561079757825182559160200191906001019061077c565b506107a39291506107a7565b5090565b5b808211156107a357600081556001016107a8565b60008083601f8401126107ce57600080fd5b50813567ffffffffffffffff8111156107e657600080fd5b6020830191508360208285010111156107fe57600080fd5b9250929050565b6000806000806040858703121561081b57600080fd5b843567ffffffffffffffff8082111561083357600080fd5b61083f888389016107bc565b9096509450602087013591508082111561085857600080fd5b50610865878288016107bc565b95989497509550505050565b60006020828403121561088357600080fd5b5035919050565b600080600080606085870312156108a057600080fd5b84359350602085013567ffffffffffffffff8111156108be57600080fd5b6108ca878288016107bc565b909450925050604085013580151581146108e357600080fd5b939692955090935050565b6000815180845260005b81811015610914576020818501810151868301820152016108f8565b81811115610926576000602083870101525b50601f01601f19169290920160200192915050565b6000815461094881610af4565b8085526020600183811680156109655760018114610979576109a7565b60ff198516888401526040880195506109a7565b866000528260002060005b8581101561099f5781548a8201860152908301908401610984565b890184019650505b505050505092915050565b600081546109bf81610af4565b600182811680156109d757600181146109e857610a17565b60ff19841687528287019450610a17565b8560005260208060002060005b85811015610a0e5781548a8201529084019082016109f5565b50505082870194505b5050505092915050565b6000610a36610a3083876109b2565b856109b2565b92151560f81b8352505060010192915050565b87815260c060208201528560c0820152858760e0830137600060e087830101526000601f19601f880116820160e0838203016040840152610a8d60e082018861093b565b90508281036060840152610aa1818761093b565b941515608084015250506001600160a01b039190911660a09091015295945050505050565b604081526000610ad960408301856108ee565b8281036020840152610aeb81856108ee565b95945050505050565b600181811c90821680610b0857607f821691505b60208210811415610b2957634e487b7160e01b600052602260045260246000fd5b50919050565b6000600019821415610b5157634e487b7160e01b600052601160045260246000fd5b506001019056fea264697066735822122065f3c6f4f5f19127b2fca49365a186b068d93567d4555a4be25b78b77ce3cefe64736f6c63430008070033",
  "immutableReferences": {},
  "source": "// SPDX-License-Identifier: GPL-3.0\npragma solidity 0.8.7;\n\ncontract GithubSigner {\n  address public owner;\n  uint256 public fee;\n  \n  struct Request {\n    string query;\n    string nodeId;\n    address consumer;\n    uint256 timestamp;\n  }\n  mapping(uint256 => Request) requests;\n  uint256 lastRequestId;\n\n  constructor(uint256 _fee) {\n    owner = msg.sender;\n    fee = _fee;\n    lastRequestId = 0;\n  }\n\n  function setFee(uint256 _fee) public {\n    require(msg.sender == owner, 'Only owner.');\n    fee = _fee;\n  }\n\n  function getRequest(uint256 _requestId) public view returns(string memory, string memory) {\n    Request memory request = requests[_requestId];\n    return (request.query, request.nodeId);\n  }\n\n  function requestSignature(string calldata _query, string calldata _nodeId) public payable returns(uint256) {\n    require(msg.value >= fee, 'Insufficiant signer payment.');\n    payable(owner).transfer(msg.value);\n\n    lastRequestId++;\n    Request memory request = Request(\n      _query,\n      _nodeId,\n      msg.sender,\n      block.timestamp\n    );\n    requests[lastRequestId] = request;\n    \n    return lastRequestId;\n  }\n\n  event VerifyEvent(bytes32 message, bytes signature, string query, string nodeId, bool value, address recovered);\n  function verifySignatureBool(uint256 _requestId, bytes calldata _signature, bool _value) public returns(bool) {\n    require(msg.sender == requests[_requestId].consumer, 'Request can only be verified by who sent it.');\n\n    bytes32 message = prefixed(keccak256(abi.encodePacked(requests[_requestId].query, requests[_requestId].nodeId, _value)));\n    address recovered = recoverSigner(message, _signature);\n\n    emit VerifyEvent(message, _signature, requests[_requestId].query, requests[_requestId].nodeId, _value, recovered);\n    // return recovered == owner;\n    return true;\n  }\n\n  // signature methods.\n  function splitSignature(bytes memory sig)\n      internal\n      pure\n      returns (uint8 v, bytes32 r, bytes32 s)\n  {\n      require(sig.length == 65);\n\n      assembly {\n          // first 32 bytes, after the length prefix.\n          r := mload(add(sig, 32))\n          // second 32 bytes.\n          s := mload(add(sig, 64))\n          // final byte (first byte of the next 32 bytes).\n          v := byte(0, mload(add(sig, 96)))\n      }\n\n      return (v, r, s);\n  }\n\n  function recoverSigner(bytes32 message, bytes memory sig)\n      internal\n      pure\n      returns (address)\n  {\n      (uint8 v, bytes32 r, bytes32 s) = splitSignature(sig);\n\n      return ecrecover(message, v, r, s);\n  }\n\n  // builds a prefixed hash to mimic the behavior of eth_sign.\n  function prefixed(bytes32 hash) internal pure returns (bytes32) {\n      return keccak256(abi.encodePacked(\"\\x19Ethereum Signed Message:\\n32\", hash));\n  }\n}",
  "sourcePath": "/home/mkt/Projects/cryptoactions/contracts/src/GithubSigner.sol",
  "compiler": {
    "name": "solc",
    "version": "0.8.7+commit.e28d00a7.Emscripten.clang"
  },
  "schemaVersion": "3.4.3",
  "updatedAt": "2021-09-09T22:30:46.575Z",
  "networkType": "ethereum",
  "devdoc": {
    "kind": "dev",
    "methods": {},
    "version": 1
  },
  "userdoc": {
    "kind": "user",
    "methods": {},
    "version": 1
  }
}