{
  "contractName": "GithubSigner",
  "abi": [
    {
      "inputs": [
        {
          "internalType": "uint256",
          "name": "_fee",
          "type": "uint256"
        }
      ],
      "stateMutability": "nonpayable",
      "type": "constructor"
    },
    {
      "inputs": [],
      "name": "fee",
      "outputs": [
        {
          "internalType": "uint256",
          "name": "",
          "type": "uint256"
        }
      ],
      "stateMutability": "view",
      "type": "function",
      "constant": true
    },
    {
      "inputs": [
        {
          "internalType": "uint256",
          "name": "_fee",
          "type": "uint256"
        }
      ],
      "name": "setFee",
      "outputs": [],
      "stateMutability": "nonpayable",
      "type": "function"
    },
    {
      "inputs": [
        {
          "internalType": "string",
          "name": "_query",
          "type": "string"
        },
        {
          "internalType": "string",
          "name": "_nodeId",
          "type": "string"
        }
      ],
      "name": "requestSignature",
      "outputs": [
        {
          "internalType": "uint256",
          "name": "",
          "type": "uint256"
        }
      ],
      "stateMutability": "payable",
      "type": "function",
      "payable": true
    },
    {
      "inputs": [
        {
          "internalType": "uint256",
          "name": "_requestId",
          "type": "uint256"
        },
        {
          "internalType": "bytes",
          "name": "_signature",
          "type": "bytes"
        },
        {
          "internalType": "bytes",
          "name": "_value",
          "type": "bytes"
        }
      ],
      "name": "verifySignature",
      "outputs": [
        {
          "internalType": "bool",
          "name": "",
          "type": "bool"
        }
      ],
      "stateMutability": "view",
      "type": "function",
      "constant": true
    }
  ],
  "bytecode": "0x608060405234801561001057600080fd5b50604051610b6c380380610b6c83398101604081905261002f9161004f565b600080546001600160a01b03191633178155600191909155600355610068565b60006020828403121561006157600080fd5b5051919050565b610af5806100776000396000f3fe60806040526004361061003f5760003560e01c80630513deb01461004457806369fe0e2d14610079578063a39083f21461009b578063ddca3f43146100bc575b600080fd5b34801561005057600080fd5b5061006461005f366004610907565b6100d2565b60405190151581526020015b60405180910390f35b34801561008557600080fd5b506100996100943660046108ee565b61023f565b005b6100ae6100a9366004610882565b61028c565b604051908152602001610070565b3480156100c857600080fd5b506100ae60015481565b6000858152600260208190526040822001546001600160a01b031633146101555760405162461bcd60e51b815260206004820152602c60248201527f526571756573742063616e206f6e6c792062652076657269666965642062792060448201526b3bb4379039b2b73a1034ba1760a11b60648201526084015b60405180910390fd5b600054604080516020601f88018190048102820181019092528681526001600160a01b039092169161022b91889088908190840183828082843760009201829052508c815260026020908152604091829020915161022595506101c5945091925060018301918b918b9101610a1b565b60408051601f1981840301815282825280516020918201207f19457468657265756d205369676e6564204d6573736167653a0a33320000000084830152603c8085019190915282518085039091018152605c909301909152815191012090565b90610439565b6001600160a01b0316149695505050505050565b6000546001600160a01b031633146102875760405162461bcd60e51b815260206004820152600b60248201526a27b7363c9037bbb732b91760a91b604482015260640161014c565b600155565b60006001543410156102e05760405162461bcd60e51b815260206004820152601c60248201527f496e73756666696369616e74207369676e6572207061796d656e742e00000000604482015260640161014c565b600080546040516001600160a01b03909116913480156108fc02929091818181858888f1935050505015801561031a573d6000803e3d6000fd5b506003805490600061032b83610a80565b90915550506040805160a06020601f88018190040282018101909252608081018681526000928291908990899081908501838280828437600092019190915250505090825250604080516020601f8801819004810282018101909252868152918101919087908790819084018382808284376000920182905250938552505033602080850191909152426040948501526003548352600281529290912083518051949550859491936103e2935084929101906107a7565b5060208281015180516103fb92600185019201906107a7565b5060408201516002820180546001600160a01b0319166001600160a01b03909216919091179055606090910151600391820155549695505050505050565b6000806000610448858561045d565b91509150610455816104cd565b509392505050565b6000808251604114156104945760208301516040840151606085015160001a6104888782858561068b565b945094505050506104c6565b8251604014156104be57602083015160408401516104b3868383610778565b9350935050506104c6565b506000905060025b9250929050565b60008160048111156104e1576104e1610aa9565b14156104ea5750565b60018160048111156104fe576104fe610aa9565b141561054c5760405162461bcd60e51b815260206004820152601860248201527f45434453413a20696e76616c6964207369676e61747572650000000000000000604482015260640161014c565b600281600481111561056057610560610aa9565b14156105ae5760405162461bcd60e51b815260206004820152601f60248201527f45434453413a20696e76616c6964207369676e6174757265206c656e67746800604482015260640161014c565b60038160048111156105c2576105c2610aa9565b141561061b5760405162461bcd60e51b815260206004820152602260248201527f45434453413a20696e76616c6964207369676e6174757265202773272076616c604482015261756560f01b606482015260840161014c565b600481600481111561062f5761062f610aa9565b14156106885760405162461bcd60e51b815260206004820152602260248201527f45434453413a20696e76616c6964207369676e6174757265202776272076616c604482015261756560f01b606482015260840161014c565b50565b6000807f7fffffffffffffffffffffffffffffff5d576e7357a4501ddfe92f46681b20a08311156106c2575060009050600361076f565b8460ff16601b141580156106da57508460ff16601c14155b156106eb575060009050600461076f565b6040805160008082526020820180845289905260ff881692820192909252606081018690526080810185905260019060a0016020604051602081039080840390855afa15801561073f573d6000803e3d6000fd5b5050604051601f1901519150506001600160a01b0381166107685760006001925092505061076f565b9150600090505b94509492505050565b6000806001600160ff1b03831660ff84901c601b016107998782888561068b565b935093505050935093915050565b8280546107b390610a45565b90600052602060002090601f0160209004810192826107d5576000855561081b565b82601f106107ee57805160ff191683800117855561081b565b8280016001018555821561081b579182015b8281111561081b578251825591602001919060010190610800565b5061082792915061082b565b5090565b5b80821115610827576000815560010161082c565b60008083601f84011261085257600080fd5b50813567ffffffffffffffff81111561086a57600080fd5b6020830191508360208285010111156104c657600080fd5b6000806000806040858703121561089857600080fd5b843567ffffffffffffffff808211156108b057600080fd5b6108bc88838901610840565b909650945060208701359150808211156108d557600080fd5b506108e287828801610840565b95989497509550505050565b60006020828403121561090057600080fd5b5035919050565b60008060008060006060868803121561091f57600080fd5b85359450602086013567ffffffffffffffff8082111561093e57600080fd5b61094a89838a01610840565b9096509450604088013591508082111561096357600080fd5b5061097088828901610840565b969995985093965092949392505050565b8054600090600181811c908083168061099b57607f831692505b60208084108214156109bd57634e487b7160e01b600052602260045260246000fd5b8180156109d157600181146109e257610a0f565b60ff19861689528489019650610a0f565b60008881526020902060005b86811015610a075781548b8201529085019083016109ee565b505084890196505b50505050505092915050565b6000610a30610a2a8388610981565b86610981565b83858237600093019283525090949350505050565b600181811c90821680610a5957607f821691505b60208210811415610a7a57634e487b7160e01b600052602260045260246000fd5b50919050565b6000600019821415610aa257634e487b7160e01b600052601160045260246000fd5b5060010190565b634e487b7160e01b600052602160045260246000fdfea2646970667358221220903fcf181c33862c67c744004b125cfc6601f3f94cb3500173b5ebb07fc0f30e64736f6c63430008070033",
  "immutableReferences": {},
  "source": "// SPDX-License-Identifier: GPL-3.0\npragma solidity 0.8.7;\n\nimport './ECDSA.sol';\n\ncontract GithubSigner {\n  using ECDSA for bytes32;\n\n  address owner;\n  uint256 public fee;\n  \n  struct Request {\n    string query;\n    string nodeId;\n    address consumer;\n    uint256 timestamp;\n  }\n  mapping(uint256 => Request) requests;\n  uint256 lastRequestId;\n\n  constructor(uint256 _fee) {\n    owner = msg.sender;\n    fee = _fee;\n    lastRequestId = 0;\n  }\n\n  function setFee(uint256 _fee) public {\n    require(msg.sender == owner, 'Only owner.');\n    fee = _fee;\n  }\n\n  function requestSignature(string calldata _query, string calldata _nodeId) public payable returns(uint256) {\n    require(msg.value >= fee, 'Insufficiant signer payment.');\n    payable(owner).transfer(msg.value);\n\n    lastRequestId++;\n    Request memory request = Request(\n      _query,\n      _nodeId,\n      msg.sender,\n      block.timestamp\n    );\n    requests[lastRequestId] = request;\n    \n    return lastRequestId;\n  }\n\n  function verifySignature(uint256 _requestId, bytes calldata _signature, bytes calldata _value) public view returns(bool) {\n    require(msg.sender == requests[_requestId].consumer, 'Request can only be verified by who sent it.');\n\n    return keccak256(abi.encodePacked(requests[_requestId].query, requests[_requestId].nodeId, _value))\n      .toEthSignedMessageHash()\n      .recover(_signature) == owner;\n  }\n}",
  "sourcePath": "/home/mkt/Projects/cryptoactions/contracts/src/GithubSigner.sol",
  "compiler": {
    "name": "solc",
    "version": "0.8.7+commit.e28d00a7.Emscripten.clang"
  },
  "schemaVersion": "3.4.3",
  "updatedAt": "2021-09-08T16:36:07.384Z",
  "networkType": "ethereum",
  "devdoc": {
    "kind": "dev",
    "methods": {},
    "version": 1
  },
  "userdoc": {
    "kind": "user",
    "methods": {},
    "version": 1
  }
}