{
  "contractName": "GithubSigner",
  "abi": [
    {
      "inputs": [
        {
          "internalType": "uint256",
          "name": "_fee",
          "type": "uint256"
        }
      ],
      "stateMutability": "nonpayable",
      "type": "constructor"
    },
    {
      "inputs": [],
      "name": "fee",
      "outputs": [
        {
          "internalType": "uint256",
          "name": "",
          "type": "uint256"
        }
      ],
      "stateMutability": "view",
      "type": "function",
      "constant": true
    },
    {
      "inputs": [
        {
          "internalType": "uint256",
          "name": "_fee",
          "type": "uint256"
        }
      ],
      "name": "setFee",
      "outputs": [],
      "stateMutability": "nonpayable",
      "type": "function"
    },
    {
      "inputs": [
        {
          "internalType": "uint256",
          "name": "_requestId",
          "type": "uint256"
        }
      ],
      "name": "getRequest",
      "outputs": [
        {
          "internalType": "string",
          "name": "",
          "type": "string"
        },
        {
          "internalType": "string",
          "name": "",
          "type": "string"
        }
      ],
      "stateMutability": "view",
      "type": "function",
      "constant": true
    },
    {
      "inputs": [
        {
          "internalType": "string",
          "name": "_query",
          "type": "string"
        },
        {
          "internalType": "string",
          "name": "_nodeId",
          "type": "string"
        }
      ],
      "name": "requestSignature",
      "outputs": [
        {
          "internalType": "uint256",
          "name": "",
          "type": "uint256"
        }
      ],
      "stateMutability": "payable",
      "type": "function",
      "payable": true
    },
    {
      "inputs": [
        {
          "internalType": "uint256",
          "name": "_requestId",
          "type": "uint256"
        },
        {
          "internalType": "bytes",
          "name": "_signature",
          "type": "bytes"
        },
        {
          "internalType": "bytes",
          "name": "_value",
          "type": "bytes"
        }
      ],
      "name": "verifySignature",
      "outputs": [
        {
          "internalType": "bool",
          "name": "",
          "type": "bool"
        }
      ],
      "stateMutability": "view",
      "type": "function",
      "constant": true
    }
  ],
  "bytecode": "0x608060405234801561001057600080fd5b50604051610d99380380610d9983398101604081905261002f9161004f565b600080546001600160a01b03191633178155600191909155600355610068565b60006020828403121561006157600080fd5b5051919050565b610d22806100776000396000f3fe60806040526004361061004a5760003560e01c80630513deb01461004f57806369fe0e2d14610084578063a39083f2146100a6578063c58343ef146100c7578063ddca3f43146100f5575b600080fd5b34801561005b57600080fd5b5061006f61006a366004610ab9565b61010b565b60405190151581526020015b60405180910390f35b34801561009057600080fd5b506100a461009f366004610aa0565b610278565b005b6100b96100b4366004610a34565b6102c5565b60405190815260200161007b565b3480156100d357600080fd5b506100e76100e2366004610aa0565b610472565b60405161007b929190610c44565b34801561010157600080fd5b506100b960015481565b6000858152600260208190526040822001546001600160a01b0316331461018e5760405162461bcd60e51b815260206004820152602c60248201527f526571756573742063616e206f6e6c792062652076657269666965642062792060448201526b3bb4379039b2b73a1034ba1760a11b60648201526084015b60405180910390fd5b600054604080516020601f88018190048102820181019092528681526001600160a01b039092169161026491889088908190840183828082843760009201829052508c815260026020908152604091829020915161025e95506101fe945091925060018301918b918b9101610c1a565b60408051601f1981840301815282825280516020918201207f19457468657265756d205369676e6564204d6573736167653a0a33320000000084830152603c8085019190915282518085039091018152605c909301909152815191012090565b906105eb565b6001600160a01b0316149695505050505050565b6000546001600160a01b031633146102c05760405162461bcd60e51b815260206004820152600b60248201526a27b7363c9037bbb732b91760a91b6044820152606401610185565b600155565b60006001543410156103195760405162461bcd60e51b815260206004820152601c60248201527f496e73756666696369616e74207369676e6572207061796d656e742e000000006044820152606401610185565b600080546040516001600160a01b03909116913480156108fc02929091818181858888f19350505050158015610353573d6000803e3d6000fd5b506003805490600061036483610cad565b90915550506040805160a06020601f88018190040282018101909252608081018681526000928291908990899081908501838280828437600092019190915250505090825250604080516020601f88018190048102820181019092528681529181019190879087908190840183828082843760009201829052509385525050336020808501919091524260409485015260035483526002815292909120835180519495508594919361041b93508492910190610959565b5060208281015180516104349260018501920190610959565b5060408201516002820180546001600160a01b0319166001600160a01b03909216919091179055606090910151600391820155549695505050505050565b6060806000600260008581526020019081526020016000206040518060800160405290816000820180546104a590610c72565b80601f01602080910402602001604051908101604052809291908181526020018280546104d190610c72565b801561051e5780601f106104f35761010080835404028352916020019161051e565b820191906000526020600020905b81548152906001019060200180831161050157829003601f168201915b5050505050815260200160018201805461053790610c72565b80601f016020809104026020016040519081016040528092919081815260200182805461056390610c72565b80156105b05780601f10610585576101008083540402835291602001916105b0565b820191906000526020600020905b81548152906001019060200180831161059357829003601f168201915b505050918352505060028201546001600160a01b03166020808301919091526003909201546040909101528151910151909590945092505050565b60008060006105fa858561060f565b915091506106078161067f565b509392505050565b6000808251604114156106465760208301516040840151606085015160001a61063a8782858561083d565b94509450505050610678565b825160401415610670576020830151604084015161066586838361092a565b935093505050610678565b506000905060025b9250929050565b600081600481111561069357610693610cd6565b141561069c5750565b60018160048111156106b0576106b0610cd6565b14156106fe5760405162461bcd60e51b815260206004820152601860248201527f45434453413a20696e76616c6964207369676e617475726500000000000000006044820152606401610185565b600281600481111561071257610712610cd6565b14156107605760405162461bcd60e51b815260206004820152601f60248201527f45434453413a20696e76616c6964207369676e6174757265206c656e677468006044820152606401610185565b600381600481111561077457610774610cd6565b14156107cd5760405162461bcd60e51b815260206004820152602260248201527f45434453413a20696e76616c6964207369676e6174757265202773272076616c604482015261756560f01b6064820152608401610185565b60048160048111156107e1576107e1610cd6565b141561083a5760405162461bcd60e51b815260206004820152602260248201527f45434453413a20696e76616c6964207369676e6174757265202776272076616c604482015261756560f01b6064820152608401610185565b50565b6000807f7fffffffffffffffffffffffffffffff5d576e7357a4501ddfe92f46681b20a08311156108745750600090506003610921565b8460ff16601b1415801561088c57508460ff16601c14155b1561089d5750600090506004610921565b6040805160008082526020820180845289905260ff881692820192909252606081018690526080810185905260019060a0016020604051602081039080840390855afa1580156108f1573d6000803e3d6000fd5b5050604051601f1901519150506001600160a01b03811661091a57600060019250925050610921565b9150600090505b94509492505050565b6000806001600160ff1b03831660ff84901c601b0161094b8782888561083d565b935093505050935093915050565b82805461096590610c72565b90600052602060002090601f01602090048101928261098757600085556109cd565b82601f106109a057805160ff19168380011785556109cd565b828001600101855582156109cd579182015b828111156109cd5782518255916020019190600101906109b2565b506109d99291506109dd565b5090565b5b808211156109d957600081556001016109de565b60008083601f840112610a0457600080fd5b50813567ffffffffffffffff811115610a1c57600080fd5b60208301915083602082850101111561067857600080fd5b60008060008060408587031215610a4a57600080fd5b843567ffffffffffffffff80821115610a6257600080fd5b610a6e888389016109f2565b90965094506020870135915080821115610a8757600080fd5b50610a94878288016109f2565b95989497509550505050565b600060208284031215610ab257600080fd5b5035919050565b600080600080600060608688031215610ad157600080fd5b85359450602086013567ffffffffffffffff80821115610af057600080fd5b610afc89838a016109f2565b90965094506040880135915080821115610b1557600080fd5b50610b22888289016109f2565b969995985093965092949392505050565b6000815180845260005b81811015610b5957602081850181015186830182015201610b3d565b81811115610b6b576000602083870101525b50601f01601f19169290920160200192915050565b8054600090600181811c9080831680610b9a57607f831692505b6020808410821415610bbc57634e487b7160e01b600052602260045260246000fd5b818015610bd05760018114610be157610c0e565b60ff19861689528489019650610c0e565b60008881526020902060005b86811015610c065781548b820152908501908301610bed565b505084890196505b50505050505092915050565b6000610c2f610c298388610b80565b86610b80565b83858237600093019283525090949350505050565b604081526000610c576040830185610b33565b8281036020840152610c698185610b33565b95945050505050565b600181811c90821680610c8657607f821691505b60208210811415610ca757634e487b7160e01b600052602260045260246000fd5b50919050565b6000600019821415610ccf57634e487b7160e01b600052601160045260246000fd5b5060010190565b634e487b7160e01b600052602160045260246000fdfea2646970667358221220be7a112d80545d49f3041df86f6d90f15be209d9f22cb43539ce485e038182a064736f6c63430008070033",
  "immutableReferences": {},
  "source": "// SPDX-License-Identifier: GPL-3.0\npragma solidity 0.8.7;\n\nimport './ECDSA.sol';\n\ncontract GithubSigner {\n  using ECDSA for bytes32;\n\n  address owner;\n  uint256 public fee;\n  \n  struct Request {\n    string query;\n    string nodeId;\n    address consumer;\n    uint256 timestamp;\n  }\n  mapping(uint256 => Request) requests;\n  uint256 lastRequestId;\n\n  constructor(uint256 _fee) {\n    owner = msg.sender;\n    fee = _fee;\n    lastRequestId = 0;\n  }\n\n  function setFee(uint256 _fee) public {\n    require(msg.sender == owner, 'Only owner.');\n    fee = _fee;\n  }\n\n  function getRequest(uint256 _requestId) public view returns(string memory, string memory) {\n    Request memory request = requests[_requestId];\n    return (request.query, request.nodeId);\n  }\n\n  function requestSignature(string calldata _query, string calldata _nodeId) public payable returns(uint256) {\n    require(msg.value >= fee, 'Insufficiant signer payment.');\n    payable(owner).transfer(msg.value);\n\n    lastRequestId++;\n    Request memory request = Request(\n      _query,\n      _nodeId,\n      msg.sender,\n      block.timestamp\n    );\n    requests[lastRequestId] = request;\n    \n    return lastRequestId;\n  }\n\n  function verifySignature(uint256 _requestId, bytes calldata _signature, bytes calldata _value) public view returns(bool) {\n    require(msg.sender == requests[_requestId].consumer, 'Request can only be verified by who sent it.');\n\n    return keccak256(abi.encodePacked(requests[_requestId].query, requests[_requestId].nodeId, _value))\n      .toEthSignedMessageHash()\n      .recover(_signature) == owner;\n  }\n}",
  "sourcePath": "/home/mkt/Projects/cryptoactions/contracts/src/GithubSigner.sol",
  "compiler": {
    "name": "solc",
    "version": "0.8.7+commit.e28d00a7.Emscripten.clang"
  },
  "schemaVersion": "3.4.3",
  "updatedAt": "2021-09-09T13:44:33.477Z",
  "networkType": "ethereum",
  "devdoc": {
    "kind": "dev",
    "methods": {},
    "version": 1
  },
  "userdoc": {
    "kind": "user",
    "methods": {},
    "version": 1
  }
}